:020000040000fa
:10000000f07f002025230000f7130000331b0000c1
:1000100000000000000000000000000000000000e0
:100020000000000000000000000000009b1c000019
:1000300000000000000000009b1c0000192b0000c5
:100040009b1c00009b1c00009b1c00009b1c0000d4
:100050009b1c00009b1c00009b1c00009b1c0000c4
:100060009b1c000099210000a50d000079070000ed
:100070009b1c00009b1c00009b1c00009b1c0000a4
:100080009b1c00009b1c00009b1c00009b1c000094
:100090009b1c00009b1c00009b1c00009b1c000084
:1000a0009b1c00009b1c00009b1c00009b1c000074
:020000040000fa
:1000b000f8b5c046f8bc08bc9e4670470523000052
:1000c000f8b5c046f8bc08bc9e467047dd2200006b
:020000040000fa
:0800d0001c16000001000000f5
:020000040000fa
:1000d80070b501f027ffc04b1a780b2a00d972e1de
:1000e8009300be4ad3589f4600f020fc002803d056
:1000f800b94b04221a7008e0b74b02221a7004e0c8
:10010800b74aa023d358db0600d570bdb24b0922ed
:100118001a7001321021002000f092ff8025ad00f6
:100128002900002001f03efd802424012100012047
:1001380001f038fd2100022001f034fd21000320e8
:1001480001f030fd2100042001f02cfd21000520e4
:1001580001f028fd2100062001f024fd21000720e0
:1001680001f020fd280002f045fc9d4a9823082153
:10017800d1509c4802f0f4fbc7e7994aa023d35812
:10018800db061dd402f012fd0028bed002f032fdbd
:100198000500ff2404402100934802f0e1fb022cf3
:1001a80045d0032c4fd0914802f064fb904b1b784c
:1001b800262baad8591c8e4a11708e4ad554a4e70a
:1001c800854b04221a70864a94230821d1500020b6
:1001d80002f010fc0a2002f031fc0022002100206d
:1001e80000f02eff80210901002001f0dbfc002136
:1001f800012001f0d7fc0021022001f0d3fc0021ee
:10020800032001f0cffc0021042001f0cbfc0021e9
:10021800052001f0c7fc0021062001f0c3fc0021e5
:10022800072001f0bffc744802f09afbaae7734864
:1002380002f020fb282200216e4802f091fc6c4b52
:1002480000221a7061e76e4802f014fb694c2178ad
:100258006c4d280002f084fb6178280002f080fbd6
:10026800a178280002f07cfb2279e178664802f048
:1002780077fba2796179654802f072fb227ae1790d
:10028800634802f06dfba27a617a624802f068fb6b
:10029800227be17a604802f063fba27b617b5f48c6
:1002a80002f05efb227ce17b5d4802f059fba27cf8
:1002b800617c5c4802f054fb227de17c5a4802f0e4
:1002c8004ffba2786178207800f0bafee07802f05f
:1002d8007dfa0500207902f079fa2d022d18a9b2cd
:1002e800002001f05ffce07902f070fa0500a079c7
:1002f80002f06cfa2d022d18a9b2012001f052fc6f
:10030800607a02f063fa0500207a02f05ffa2d02a3
:100318002d18a9b2022001f045fce07a02f056fa45
:100328000500a07a02f052fa2d022d18a9b2032076
:1003380001f038fc607b02f049fa0500207b02f0ee
:1003480045fa2d022d18a9b2042001f02bfce07b00
:1003580002f03cfa0500a07b02f038fa2d022d18b5
:10036800a9b2052001f01efc607c02f02ffa0500fe
:10037800207c02f02bfa2d022d18a9b2062001f0dc
:1003880011fce07c02f022fa0500a07c02f01efac3
:100398002d022d18a9b2072001f004fce07c02f020
:1003a80015fa0500207d02f011fa2d02281880b2f6
:1003b80002f020fb28220021200002f0d1fb0c4b88
:1003c80000221a70a1e6bff34f8f184b184ada6063
:1003d800bff34f8fc046fde7880100204827000083
:1003e80000440041f815000014160000e016000053
:1003f8008f010020d80000200816000024160000f5
:100408003416000044160000501600006016000064
:10041800701600008016000090160000a01600005c
:10042800b0160000c0160000d016000000ed00e075
:040438000400fa05bd
:020000040000fa
:10043c000023f0b506001500b1b00791039307999e
:10044c000b78002b00d10ce101235b420c9310ab19
:10045c0000240e9380230b940d940f930b5d002bb3
:10046c0001d0252b2ad1002c06d02200300002f01e
:10047c0035f8079b1b190793079b1a78252a00d080
:10048c00e4e0013304930793022301219c461027d7
:10049c00079803782b2b1ad025d8202b1ad0232b76
:1004ac001dd02a2b28d001f09dff0d90079b1a78a8
:1004bc00303a092a31d801330793f7e70134cde7f5
:1004cc000b9b05930b4301300b930790e0e7042340
:1004dc000b9a0fe00b9b0593059a08230ae00b9be4
:1004ec0005933b43efe72d2bead0302bd9d1624655
:1004fc000b9b05931343e6e72b6801301a1d1b6811
:10050c0007902a600d93002b07da0b9a5b42059239
:10051c00012205990d934a400b920b9bda0702d5e9
:10052c00022293430b93079b1a782e2a0ed100229a
:10053c00581c0c9207905a782a2a27d10233079319
:10054c002b681a1d1b682a6005930c9307a802f0f0
:10055c00c3f8079b0700187802f036fb692800d116
:10056c0082e034dc632800d1dbe01adc252800d1e2
:10057c00e8e0612858d0049b0122079300235242e3
:10058c000c920b930d9300930232e5e001f02affdd
:10059c000c90079b1a78303a092ad7d80133079365
:1005ac00f7e7642860d06728e5dc2a00390008a842
:1005bc0002f020f9002800d1afe0079b0ba95a1cd0
:1005cc0007921b7808aa300002f03cfb3de0702833
:1005dc0000d17de016dc6e2800d197e06f28cad1df
:1005ec002b000022390008a801f0ebf8002800d1fc
:1005fc0093e0079b08aa01330ba93000079302f084
:10060c001ffb22e0752840d078284fd07328b2d138
:10061c00802f00d081e0079b2a6801330793131dbc
:10062c002b601268002388e02a00390008a802f029
:10063c00e1f8002800d170e0079b0ba95a1c079227
:10064c001b7808aa300002f0fdfa2418039b1c1931
:10065c00a34200dc82e04f22414b1a6001235b4233
:10066c000393039831b0f0bd2b000122390008a888
:10067c0001f0a7f8002850d0079b08aa01330ba95a
:10068c003000079302f0dcfadfe72b000022390080
:10069c0008a801f096f800283fd0079b08aa013360
:1006ac000ba93000079301f01cfdcee72b000022b4
:1006bc00390008a801f085f800282ed0079b5a1c99
:1006cc0007921b7808aa0ba9300000f0f5fdbce7d7
:1006dc002b000022f02108a801f073f800281cd090
:1006ec00079b099a01330793089b13430cd11d4fa9
:1006fc00380002f0e9f9390002000b9b00930d9bc6
:10070c00300001f0d3f9a0e77823dbe7039b390035
:10071c001a1908a82b0001f09ffb079b01330793c4
:10072c0094e7802ff9d1079b013307932b681a1d8f
:10073c001b682a6008aa137001230ba9300001f072
:10074c009ffd82e7802fe8d10122079b013307939d
:10075c000b9b049300930d9b0349d1e703946ee626
:0c076c0084010020262c00002c2c000032
:020000040000fa
:1007780070b56c4b9b7d002b19d06b4b9c6a694bf9
:100788005b8b9b0714d5684b2022ff2199540132bb
:10079800fd399954644a2023d35c5bb2013300d1fc
:1007a8008de0614a2023d35c062b00d1a0e070bd08
:1007b8005c4b5b8bdb0707d55b4b2022ff219954f1
:1007c8000132fd399954e5e7564b5b8b5b0707d53a
:1007d800554b2022ff2199540132fe399954d9e70b
:1007e800514a2023d35c5bb2032b47d0042b11d092
:1007f800022bcfd11369002b05d0908880b200213d
:1008080001f09cfcc6e7484b988880b2012101f0b2
:1008180095fcbfe7444a936912699a420dd0424a4f
:100828009268d05c3f4928228854591c3d4ad369b4
:10083800002bfcd13c4b9961ace73b4b5b69002b2f
:100848000ed0394b9b885b0001221343354a536213
:10085800d369002bfcd1344a20330321d15499e7c2
:10086800304a5168c0239b020b435360d369002b65
:10087800fcd12d4a20330621d1548be72a4bd96964
:100888005b69013b8b420cd0264ad369002bfcd113
:10089800254bda68234d2820285c50540131d96152
:1008a80078e7204a5068e023db0203435360d369aa
:1008b800002bfcd11c4a20330620d054e4e7202327
:1008c8000021d154174a5168c0239b020b4353603f
:1008d800d369002bfcd1134b83221a76124b5b6a27
:1008e800002b00d163e7104b5b6a200098475ee756
:1008f8001300002220215a5401315a54094b8332e3
:100908001a761900533a4b8b1340102bfbd1064b28
:100918005b6a002b00d14ae7034b5b6a20009847cb
:0c09280045e7c04600100042800000209f
:020000040000fa
:1009340000b583b001f0f8fa554b00221a705a70d2
:10094400544b0a321a6076328021002000f07afb80
:1009540000281ad0504801f08fff00220021002007
:1009640000f070fb002814d04b4801f085ff4b4b7e
:1009740000934b4b4b4a4c49002001f0a3ff002845
:100984000bd14a4801f078ff41e0494801f074ff77
:10099400e0e7474801f070ffe6e7002001f048f87f
:1009a4000028eed0002001f077f90028e9d00021da
:1009b400002001f0f9f80028e3d00021012001f023
:1009c400f3f80028ddd00021022001f0edf8002822
:1009d400d7d00021032001f0e7f80028d1d000216e
:1009e400042001f0e1f80028cbd00021052001f01b
:1009f400dbf80028c5d00021062001f0d5f8002836
:100a0400bfd00021072001f0cff80028b9d0294831
:100a140001f032ff214b0093214b224a224900204e
:100a240001f070ff002826d0234801f025ff1b4b5e
:100a340000931b4b1b4a1c49012001f073ff002843
:100a44001dd01e4801f018ff144b0093144b154a97
:100a54001549002001f076ff002814d0184801f051
:100a64000bff002001f0c8ff164a94230821d1503f
:100a7400012003b000bd144801f0fefed4e7134882
:100a840001f0fafedde7124801f0f6fee6e7c046a3
:100a9400880100207801002014140000092c0000b3
:100aa4001f2c0000992000003d2200002c1400009f
:100ab400f81300004c14000084140000b414000067
:100ac400e414000000440041681400009c14000079
:040ad400c814000042
:020000040000fa
:100ad80070b50500594c207fc0b2002800d0a7e0af
:100ae80000294ad0002d48d0554c66680724344068
:100af800012c5ed051480560426000244461846145
:100b080004614e488160002a58d04c4ad3604b4a51
:100b1800012111774a4a127e520705d5484a042016
:100b2800916a117e0142fbd1454a518b0420014351
:100b38005183117e80200143117640498a68c96833
:100b4800914203d93d48c168891a01613c49496805
:100b5800490743d139498969914233d2374a1168e3
:100b6800087837498862916901319161002b5ad020
:100b7800334b04229a7501205be0002b59d0002ae0
:100b880057d02f4c666807243440012c0cd02b48d2
:100b9800056042600024446184610461002db0d185
:100ba800264900208860aee7002943d1dc07eed54e
:100bb8003fe0cc073dd4002be9d0f7e71f4a0021de
:100bc800d160a4e71d4a1269002acfd01c4aff2130
:100bd80091621a490a69013a0a61c7e7174a916896
:100be80049089160116949081161d1684908d160c3
:100bf800916892698a420ad210490a681288d20515
:100c0800d20d0f4882628a6901328a61aee70b4ac7
:100c18001269002aaad00a4a0a49916207490a6950
:100c2800013a0a61a2e7064b01229a75012000e009
:100c3800002070bdcc07b9d5fbe7c046ac0000204a
:080c4800000c0042ff01000056
:020000040000fa
:100c500070b5534b872252051a60c022d2031a6125
:100c6000022240215a5401315a544224012018557d
:100c700043255a55013558550135585501355855b4
:100c800001355a55013558550135585501355855d6
:100c90000135585501355a5501355a5503355955c1
:100ca00001355c55103419550134195513315a5416
:100cb00000210234195501341955013419550134f4
:100cc00018550134185502341a55013419552c3c65
:100cd0001955013418550134403d1d55013418553e
:100ce00023355c55123d35269d5501369955023602
:100cf0009a5501369d55013699550136995501365b
:100d00009d551b355955013559554235303e5e517b
:100d10001035043e5e5130355a5501355855013570
:100d200059550135595501355a5501355a55013531
:100d30005a5501355a5501355a5501355855013521
:100d4000585501355855cb301a5401301a540130da
:100d50001a5401301a5401301a5401301a54053013
:100d60001a5401301a5407301a5401301a540e32f2
:100d70002f381a54013019540130195401301954c4
:100d800001301a54a5329c540132995401329954bd
:100d900001329954033299540432995470bdc046bb
:040da00000440041ca
:020000040000fa
:100da40070b5504b586a504b9b7d002b54d04e4924
:100db4004c68072214404b4b5a699d699e680b7e10
:100dc4005b0757d5896a474bdb68934252d9002c9d
:100dd40043d1444b5b6899540132434b1b7edb0780
:100de40016d5414b012119753e4b9b68ab4256d930
:100df4003c4b1b68595d3c4b99620135394b1b696f
:100e0400002b01d1b54262d0364bdb68934262d0ed
:100e1400344b5a619d61344b1b7e9b0715d5334b74
:100e24001b78002b18d02f4bdb68934211d12d4b2c
:100e340000221a772c4907240c752c490a701b6a66
:100e4400002b09d0274b1b6a9847284b1b78002b93
:100e540002d0254b02229a7570bd224b5b68540068
:100e6400e1520132204b1b7edb07d1d51e4b012101
:100e7400197508e01c4b1b7edb07c9d51a4b0121f1
:100e84001975002cb0d0174b9b68ab4213d9154b86
:100e94001b686900c95a144b99620135aee7114bbe
:100ea4001b69002baad0104bff2199620d490b69d5
:100eb400013b0b61a2e70b4b1b69002b9ed00a4b35
:100ec4000b49996207490b69013b0b6196e7074b94
:100ed400012119709ce7044b01219975033119759f
:100ee40096e7c046ac000020000c00428a010020b6
:040ef400ffff0000fc
:020000040000fa
:100ef800000100201c00000000000000800000200d
:100f08002c000000000000008a0100200100000001
:100f180000000000ac0000202c00000000000000d1
:100f28005000002030000000000000001c010020dc
:100f380014000000000000008b01002001000000e8
:100f48000000000030010020140000000000000034
:100f58008c01002001000000000000004401002076
:100f680014000000000000008d01002001000000b6
:100f780000000000580100201400000000000000dc
:100f88008e01002001000000000000007401002014
:100f9800040000000000000088010020020000009a
:100fa800000000008f010020010000000000000088
:100fb800d800002028000000000000007801002070
:100fc8000400000000000000b00100200100000043
:100fd80001000000020000007c0100200400000065
:100fe8000000000000000020500000000000000089
:100ff8009001002020000000010000000100000016
:1010080003000000000000000000000000000000d5
:1010180000000000000000006c0100206c010020ae
:101028000800000000000000800100200800000007
:101038000000000000000000000000006666666610
:020000040000fa
:1010480070b584b06b46dd1dd8719e1d99715c1d0d
:101058005a71464801f00efc2178454801f080fca1
:101068003178444801f07cfc2978434801f078fc49
:1010780001230f226a4401212000fff729fd0028df
:1010880001d104b070bd012001f0d8fc01230f226a
:101098006a44012168460630fff71afd0028f0d09f
:1010a800012001f0cbfc01230f226a44012168468c
:1010b8000730fff70dfd0028e3d0012001f0befc4a
:1010c8002e4801f0d7fb2e4c8025ed03a561142096
:1010d80001f0b4fc6561142001f0b0fc0f206844f5
:1010e8000023037001330e226a440121fff7f0fc4c
:1010f8000028c6d0012001f0a1fc0f2068446b46ef
:1011080006331b78037001230d226a440121fff77f
:10111800dffc0028b5d0012001f090fc012303aad0
:1011280001210f206844fff7d3fc0028a9d0012033
:1011380001f084fc0e236b441a786b4605331b7848
:1011480000209a429dd10d236b441a786b460633d2
:101158001b789a4295d103ab18786b4607331b78f6
:10116800c01a43425841c0b28be7c046101d000068
:101178001c1d0000381d0000541d0000701d0000db
:0411880000440041de
:020000040000fa
:10118c00374b384a1a821a000123d1680b42fcd023
:10119c00334b00229a61344b344a5a601a0053780c
:1011ac005bb2002bfbdb304b314a5a601a00537890
:1011bc005bb2002bfbdb2c4b2e4a5a601a00537887
:1011cc005bb2002bfbdb284b2b4a5a601a0053787e
:1011dc005bb2002bfbdb244b284a5a601a00537875
:1011ec005bb2002bfbdb204b254a5a601a0053786c
:1011fc005bb2002bfbdb1c4b802252025a60920923
:10120c009a601a0053785bb2002bfbdb164b1d4a1d
:10121c005a601d4a9a601a0053785bb2002bfbdbb4
:10122c00114b1a4a5a601a0053785bb2002bfbdb45
:10123c000d4b174a5a80174a5a80174a5a80174a38
:10124c005a80174a5a80174a5a80174a5a80174aa6
:10125c005a80174b174a1a62014b00221a627047c8
:10126c000008004006040000000c004003000100d0
:10127c000400010005000100060001000700010048
:10128c0008000100010001000180000002000100c3
:10129c0003410000144000001540000016400000ff
:1012ac0017400000184000001e40000021400000c4
:0812bc00000400407c00050065
:020000040000fa
:1012c400f0b58fb00d934b680c9006938b680d00ae
:1012d4000793cb6816000393069b0f68002b44db2f
:1012e40002239f4310233b400a93079b04930a9bca
:1012f400002b07d0726833681343079a02d0130097
:10130400023b049308233b400b935a1e9341049ad7
:10131400d31a04933368039a0893736809932b6967
:101324005c1e00231355069b0593012c20dc0a9bad
:10133400002b51d10b9b002b03d02023039a013c9b
:1013440013552b6900975a1e039b121b19190c98ed
:10135400079b00f0affb0c9b5b68db0503d56b6858
:10136400984200da18000fb0f0bd01230693b9e7e4
:10137400089b099a13430bd1059b002b08dc069aa2
:10138400049b9b1a059a9b18002bd0ddbb07ced576
:101394000f23089a013c134018005730092b01dc35
:1013a400303318000d9b413b192b06d820230343ef
:1013b400613b192b01d801f012fc039b1855059bc6
:1013c400013b0593099b1a07089b1b091a43099bb8
:1013d40008921b090993a8e70cce1343aad0039bd8
:1013e4000d9a1b19013b1a703023039a023c1355c2
:0213f400a0e770
:020000040000fa
:0213f600fee710
:020000040000fa
:1013f800496e697469616c697a6520535049206d3a
:1014080061696e204e4f204f4b0d0000496e697484
:1014180069616c697a6520535049206d61696e2055
:101428004f4b0d00496e697469616c697a65204596
:10143800787465726e616c20446163204e4f204f52
:101448004b0d0000496e697469616c697a652045c5
:10145800787465726e616c20446163204f4b0d0097
:10146800496e697469616c697a6520456570726f47
:101478006d204e4f204f4b0d00000000496e6974df
:1014880069616c697a6520456570726f6d204f4b94
:101498000d000000496e697469616c697a652052b3
:1014a8005443204e4f204f4b0d000000496e697485
:1014b80069616c697a6520525443204f4b0d0000d6
:1014c800496e697469616c697a6520457870616ee6
:1014d800646572204e4f204f4b0d0000496e6974b1
:1014e80069616c697a6520457870616e64657220ff
:0414f8004f4b0d0049
:020000040000fa
:1014fc0053544154455f4f46462020202020202045
:10150c00202020200053544154455f5354415254e1
:10151c00494e472020202020200053544154455f41
:10152c004552524f522020202020202020200053b2
:10153c00544154455f43414c4942524143494f4efb
:10154c002020200053544154455f5354414e444293
:10155c0059202020202020200053544154455f4323
:10156c004f5254455f4d4f4e4f5f31202000535426
:10157c004154455f434f41475f4d4f4e4f5f3120c4
:10158c0020200053544154455f434f5254455f4d06
:10159c004f4e4f5f3220200053544154455f434f10
:1015ac0041475f4d4f4e4f5f322020200053544136
:1015bc0054455f434f5254455f4249504f4c415242
:1015cc00200053544154455f434f41475f424950bb
:1015dc004f4c415220200053544154455f545552b6
:0c15ec004e494e475f4f4646202020002d
:020000040000fa
:1015f800435554204249504f4c41520d0a20000097
:10160800494e414354495645200000006563686fc0
:10161800203a202575200d0a0000000053746174db
:1016280065206f66206672616d650d00456e6420e9
:101638006f66206672616d650d000000446174611b
:101648002025580d0a000000444143203120255828
:101658002025580d0a000000444143203220255817
:101668002025580d0a000000444143203320255806
:101678002025580d0a0000004441432034202558f5
:101688002025580d0a0000004441432035202558e4
:101698002025580d0a0000004441432036202558d3
:1016a8002025580d0a0000004441432037202558c2
:1016b8002025580d0a0000004441432038202558b1
:1016c8002025580d0a000000646163202020255859
:1016d8002025580d0a00000044656661756c740d7c
:0416e8000000c046f8
:020000040000fa
:1016ec00f0b5060085b00f0015001c008b4265d8c4
:1016fc0001d1824262d82100280001f0d9f93900c9
:10170c000090300001f0d4f9009b21001b1a1a0044
:10171c002800039301f0c0f900900191019bbb429a
:10172c0046d802d1009bb34242d8009b019c039a3d
:10173c0001200021f61aa74101f0aef9039b002b02
:10174c002fd0019b009adb0754081c43019b5d08ba
:10175c00039b9c46bd422ed801d1b4422bd83200fb
:10176c003b00121bab41012692185b410027b618b7
:10177c005f4101235b429c446346002bead18019f4
:10178c007941039a04000d003000390001f078f91a
:10179c00039a06000f0001f07ff9241a8d412000f6
:1017ac0029000a9b002b01d01e605f6005b0f0bdc4
:1017bc0000200021c2e7b6197f41dae700200021a2
:0217cc00efe745
:020000040000fa
:1017ce0010b588293cd015dc81294dd003dc802949
:1017de004ad0002010bd822911d08429f9d1196870
:1017ee00002a26d00a1d1a6000228b5e0360db17ca
:1017fe00436011e0a02930d010dc9029e9d119689e
:10180e000724002a2ed00919a1430a0008321a60b3
:10181e000b684c68036044600120dbe7c02901d0ef
:10182e00f029d6d11a68111d1960136803600023c0
:10183e00dee70c1d1c600b689bb203604260ebe799
:10184e001968002a04d00a1d1a600023cb56cde772
:10185e000c1d1c600b68dbb2efe71a68111d1960d6
:10186e001368c3e70731cfe71968002a03d00a1db2
:0e187e001a600b68bae70c1d1c600b68dde7f2
:020000040000fa
:10188c004d4350343746454232385f52656164539c
:10189c0074617475732e2e2e0d00000052656769ed
:1018ac007374657220414444522020203a202575df
:1018bc000d0a0000436f6d6d616e642020202020a6
:1018cc00202020203a2025750d0a00005265636502
:1018dc006976656420446174615b305d3a202575de
:1018ec000d0a000052656365697665642044617475
:1018fc00615b315d3a2025750d0a000052657375e8
:10190c006c74202020202020202020203a202575b7
:08191c000d0a0d0a0000c0468f
:020000040000fa
:10192400002934d00123002210b488422cd301248e
:101934002407a14204d2814202d209011b01f8e723
:10194400e400a14204d2814202d249005b00f8e7dc
:10195400884201d3401a1a434c08a04202d3001b08
:101964005c0822438c08a04202d3001b9c0822433b
:10197400cc08a04202d3001bdc082243002803d079
:101984001b0901d00909e3e7101c10bc704701b51d
:10199400002001f05df902bd0029f8d003b5fff77e
:0c19a400c1ff0ebc4243891a1847c04620
:020000040000fa
:1019b000f8b51e4b1b7d002b37d01c4a936851682d
:1019c0001b4a127ed2071dd599421bd918490726fa
:1019d000164a944617001500012409e03a68d25cc3
:1019e0000a85013368680a7e22420bd0984209d9e1
:1019f0004a683240012af1d1624612685800825a80
:101a00000a85eee7094a936052689a420dd8074b5f
:101a100000221a755a60064a01211175db68002bf5
:101a200003d0024b1869db689847f8bd50000020ce
:041a30000008004268
:020000040000fa
:101a340010b584b0040003aa50231370430081003e
:101a44005b18c318c1005b1801015b1841015b18e6
:101a540081015b18c1015b185370002393700f4b15
:101a64001b78002b0ad10e4b1869642200921c6863
:101a7400032303aa6021a04704b010bd094800f065
:101a8400fbfe0a21084800f06dff5021074800f0d2
:101a940069ff2100064800f065ffe4e78b010020a0
:101aa4001c010020ec2100000c2200002422000074
:041ab400142a0000f0
:020000040000fa
:101ab800f0b51d00012389b014000e9a06001a40e3
:101ac8000391029201d1a5420ad82200039930005d
:101ad80000f006fda54203d82500280009b0f0bd96
:101ae8002f1b01973a00102f00d91022202104a89b
:101af80001f036f8019b0f2b0ed80f2204a93a40ab
:101b0800300000f0edfc029b002be6d12200039987
:101b1800300000f0e5fce0e7102204a9300000f0f6
:0a1b2800dffc019b103b0193e4e792
:020000040000fa
:021b3200fee7cc
:020000040000fa
:101b3400194b01221a701a00537e5bb2002bfbdb97
:101b4400164b1a68164b1b68db0e0721114049011e
:101b54000b435201e021c9000a4013430e4a138586
:101b64003f23d3703d3b53700e4b1361537e5bb2e6
:101b7400002bfbdb084bc022d2009a801a00537e54
:101b84005bb2002bfbdb044b0f221a761a00537e48
:101b94005bb2002bfbdb70470040004224608000f6
:081ba400206080000619000f0b
:020000040000fa
:101bac0070b584b006000c00144b994224d8c500c3
:101bbc00edb2134b1b78002b0ed103aa1570230a20
:101bcc00537094700f4b1869642100911c680323a7
:101bdc000439a04704b070bd0b4800f049fe310039
:101bec000a4800f0bbfe2900094800f0b7fe2100ae
:101bfc00084800f0b3fee0e70020ebe7ff0f000021
:101c0c008b0100201c01002018270000a8180000e0
:081c1c00c01800003027000091
:020000040000fa
:101c2400f7b5040019000a9fe368666800933b68ef
:101c3400100001932369013b1c00002e00da0126e9
:101c44000022009dea5435000123002c03dc002b04
:101c54001cd02000febd02000a4309d1002d07dc80
:101c6400089a921b5219002af1dd019a9207eed5c7
:101c7400099b099adb1700f0d9fb8c460099013cbb
:101c8400130030320a55013d6146dee710233a68fd
:061c94009a433a60dde70f
:020000040000fa
:021c9a00fee763
:020000040000fa
:101c9c0010b584b0040003aa402313708300010123
:101cac005b18c31881015b18dbb2537093700f4b38
:101cbc001b78002b0ad10e4b1869642200921c6809
:101ccc00032303aa6021a04704b010bd094800f00b
:101cdc00cffd0821084800f041fe4021074800f0e4
:101cec003dfe2100064800f039fee4e78b010020a0
:101cfc001c010020e82800000c2200002422000017
:041d0c002c2a00007d
:020000040000fa
:101d10005350495f4553553330300d005265466985
:101d20006c746572636f6e74726f6c20205b5d3ac9
:101d30002025750d0a00000052654f7574636f6ea3
:101d400074726f6c20202020205b5d3a2025750d79
:101d50000a0000004d6f64636f6e74726f6c202018
:101d600020202020205b5d3a2025750d0a00000010
:101d70004f4b205452414e534d495353494f4e0df2
:041d80000000c04659
:020000040000fa
:101d840010b5194a2c23d35c002b18d01300d26948
:101d94001b6a934213d2144b986a14490a8d92b267
:101da4001b6a4c6807212140012909d00e49896921
:101db400ca5401330c4a1362d2699a4205d010bd49
:101dc400094989695c006252f3e7074b00222c2120
:101dd4005a54da61054a583111755b6a002beed00a
:101de400014b5b6a9847eae7500000200008004274
:020000040000fa
:101df4003d3d3d3d3d3d3d3d3d3d3d3d3d3d3d3d0f
:101e04003d3d3d3d3d3d3d3d3d3d3d3d3d3d3d3dfe
:101e14003d3d3d3d3d3d3d3d3d3d3d3d3d3d3d3dee
:101e24003d3d3d3d3d0d0000202020202020202070
:101e340020202020204249535455524920535953bd
:101e440054454d20535441525445442020202020d1
:101e5400202020202020202020202020200d0000d1
:020000040000fa
:101e640010b584291fd007dc812915d0822922d0fe
:101e7400802911d0002010bd90291cd008dc8829ad
:101e8400f8d119680c1d1c600b6803601a7010e00f
:101e9400a02901d0c029edd119680c1d1c600b6864
:101ea40003601a6005e019680c1d1c600b68036070
:101eb4001a800120dfe719680c1d1c600b680360a1
:081ec4001a60d2175a60f4e71e
:020000040000fa
:101ecc00144b01221a601a00d369002bfcd1114b60
:101edc00802252005a601a00d369002bfcd10d4ba2
:101eec002222da600c4a1a601a00d369002bfcd14a
:101efc00084b10225a831a00d369002bfcd1074bd4
:101f0c00002221215a5401395a54024b83329a75ba
:101f1c007047c046001000421600100080000020e0
:020000040000fa
:101f2c0010b5124b1a78124b1b789a4213d0022b15
:101f3c0012d051008a18d000821a0e4c1219590076
:101f4c00c918c800411a09190b4800f007fd074bc6
:101f5c001a78074b1a7010bd51008a18d100891ad3
:101f6c00044a8918054800f0f9fcf0e788010020c4
:101f7c00b0010020fc14000064280000542800006c
:020000040000fa
:101f8c0000230e4a10b513600d4a13600d4a1360fe
:101f9c000d4a13600d4a13600d4a536213610133ed
:101fac00936000f009fe00f03afc0a4c0a4b9c428c
:101fbc0000d310bd08cc9847f8e7c046800100203c
:101fcc000c0000200800002000000020040000206d
:0c1fdc0010000020bc000000c00000004d
:020000040000fa
:101fe800bff35f8f62b6114bc22292009958104816
:101ff8000840c021090201439950802189001960d5
:1020080099580c480840c02109040143995080217f
:10201800c900196099580902090ac020000601433d
:102028009950802212011a607047c04600e100e012
:08203800ff00ffffffff00ffa6
:020000040000fa
:10204000114b124a1a60124a9a81c02292025a60b7
:102050001a00d369002bfcd10b4a136802210b43f1
:102060001360d369002bfcd10a4b00229a61da611c
:102070001a622c215a545a621a605a609a601a7570
:10208000da60da857047c04600080042040131403a
:0820900004c5ffff5000002011
:020000040000fa
:10209800f0b585b0039115001e0000f0b1fd0400f5
:1020a80000f0c0fb070000f0abfd001b0c9b834257
:1020b80014d3002ff4d10b9b00930a9b3200290004
:1020c800039800f049fa00280bd0012000f0b6fc74
:1020d80000f064fd43425841c0b202e00020002fe6
:0620e800e9d005b0f0bdd7
:020000040000fa
:1020ee00f0b50b680c008f68cd68496887b00600a4
:1020fe000593002902db02218b43059305a9536842
:10210e00126802910a21009701912000fff783fdca
:10211e00236929185a1e059b121a009330003b00a2
:10212e00fff7c3fc7368db0503d56368984200dada
:06213e00180007b0f0bd1f
:020000040000fa
:1021440010b5114b00229a61da61104b83321a7672
:102154005a680f4c22405a601a00d369002bfcd1f4
:1021640000290cd0084a20330324d45440000843e7
:10217400064b58621a00d369002bfcd110bd024ae9
:1021840020230424d454f1e78000002000100042ee
:04219400fffffbff4f
:020000040000fa
:1021980010b5134b9b7d002b1ad0114a137edbb26e
:1021a800927d52b2002a14db0d4a137edbb2927d77
:1021b800d20703d5db0701d5fff7f6fb084a137ee4
:1021c800dbb2927d520703d55b0701d5fff7d6fd39
:1021d80010bd5bb2002be7da00f064f9e4e7c04613
:0421e80000080042a9
:020000040000fa
:1021ec004d4350343746454232385f5772697465f7
:1021fc004741494e5f414c4c2e2e2e0d00000000e5
:10220c007265675f6164647220202020202020208a
:10221c003a2025750d0a0000636f6d6d616e6420a8
:10222c0020202020202020203a2025750d0a000097
:020000040000fa
:10223c00f0b583b0019115001e0000f0dffc040026
:10224c0000f0eefa070000f0d9fc001b089b83425b
:10225c0011d3002ff4d132002900019800f022fa9a
:10226c0000280bd0012000f0e7fb00f095fc434266
:10227c005841c0b202e00020002fecd003b0f0bdfa
:020000040000fa
:10228c00f0b50f0087b0039015001049072204a881
:10229c001c0000f059fcbb687e6802933f68002d5f
:1022ac0000d104ad002c03d1280000f00dfc04007b
:1022bc00002e02dbb44200d934000097029b2200ae
:1022cc0029000398fff7f2fb07b0f0bd402c00008b
:020000040000fa
:1022dc0010b5064c2378002b07d1054b002b02d0f0
:1022ec00044800e000bf0123237010bd0001002052
:1022fc000000000000000000044b10b5002b03d0c0
:10230c000349044800e000bf10bdc04600000000b7
:08231c00040100200000000094
:020000040000fa
:1023240010b50a4b98470a4b984700f087f9094bb8
:10233400ff229343084a9360084b9847084b9847f9
:10234400084b984700f05ef9fee7c046af26000050
:10235400af2600000000000000ed00e08d1f00002b
:08236400af260000af260000c7
:020000040000fa
:10236c0070b5002818d0002918d000250c4a01247b
:10237c00072605e06b00c35a13850135a94209d025
:10238c00137e2342fcd053683340012bf2d0435dc3
:10239c001385f2e7012070bd0020fce70120fae76d
:0423ac0000140042d7
:020000040000fa
:1023b00010b50e4b06225a60fef74afcfef7e6fe09
:1023c00000f006f900f014fcfff780fd00f050f873
:1023d000fff736fe00f0f6fa00f0def8fff7aafb92
:1023e00000f0e2fafff700fe10bdc04600400041d9
:020000040000fa
:1023f000030010b51a78202a0dd0110009390429dc
:1024000009d900212b2a02d02d2a01d10131013313
:1024100000200a2404e00133ece760430133801a12
:102420001a78303a092af8d9002900d1404210bd63
:020000040000fa
:10243000002b11d1002a0fd1002900d1002802d091
:102440000021c943081c07b4024802a140180290a9
:1024500003bdc0460108000003b4684601b50298f8
:10246000fff744f9019b9e4602b00cbc7047c04682
:020000040000fa
:102470000b4b00221a621a779a60da60094b8022ad
:1024800092025a601a00d369002bfcd1054b8f22af
:102490001a73054a1a601a00d369002bfcd17047e1
:0c24a000ac000020000c00420e002300e5
:020000040000fa
:1024ac0010b50c4b5b8b0722134000d110bd0a4cae
:1024bc00e38500f073f9074b84221a752c23002254
:1024cc00e254636a002bf1d0034b986a5b6a98471d
:0c24dc00ece7c046000800425000002061
:020000040000fa
:1024e800436870b50400d80512d52569954200d90e
:1024f8001500002d0bd02a00606900f027fb226927
:1025080063695b19551b0022636125611a7070bdf0
:0c251800db06fcd4200000f079fbf8e7a3
:020000040000fa
:102524001c2101231b04984201d3000c10391b0aff
:10253400984201d3000a08391b09984201d30009c3
:10254400043902a2105c40187047c046040302021a
:0c25540001010101000000000000000077
:020000040000fa
:1025600070b50c4d20242d5d0024002d01d02000dd
:1025700070bd084ca080e360049b6361a160226190
:102580000023a37023702122a3540021fff7dafd5a
:082590000124ece780000020ab
:020000040000fa
:102598000a4b0b4a1a600b4a9a81c02292025a606f
:1025a8001a00d369002bfcd1044a136802210b439b
:1025b8001360d369002bfcd17047c0460018004255
:0825c8000401314004c5ffffce
:020000040000fa
:1025d0000a4b0b4a1a600b4a9a81c02292025a6037
:1025e0001a00d369002bfcd1044a136802210b4363
:1025f0001360d369002bfcd17047c0460014004221
:082600000401314004c5ffff95
:020000040000fa
:1026080010b50020fff7d0fe094c200000f032f989
:10261800084800f02ff9200000f02cf900f01afa11
:10262800fef784f9fdf754fd00f068fafae7c046b2
:08263800f41d00002c1e00003f
:020000040000fa
:1026400010b50b480168002905d14368002b02d161
:1026500000f0a9f810bd04008368064a9bb20c3450
:102660009b009b5842682000984780002018e9e7ab
:08267000f80e0000402b0000f1
:020000040000fa
:1026780013b50b006a46d41d5a68c1b22170d20541
:1026880005d55a69c0b2541c5c61117016bd01228f
:102698002100180000f0bafa002801d02078f5e7e8
:0626a80001204042f2e7b0
:020000040000fa
:0226ae00704773
:020000040000fa
:1026b00010b50b4c2023e45c0023002c01d0180043
:1026c00010bd074b9880dc605c6199601a619c705a
:1026d0001c7021229c540021fff734fd0123eee7fa
:0426e0008000002056
:020000040000fa
:1026e400f0b5050000200a4a4400a65c002e02d181
:1026f40012195078f0bd296801300f78c0b2b74282
:1027040003d112190131507829600a28ebd9f1e775
:04271400ec2a0000ab
:020000040000fa
:102718004d4350343746454232385f5772697465c5
:102728004441432e2e2e0d0056616c7565204441a0
:1027380043202020202020203a2025750d0a000063
:020000040000fa
:10274800f00000001201000012010000ce0300009a
:10275800080100001201000012010000120100002f
:1027680012010000820100001201000012010000a5
:020000040000fa
:1027780070b5140016000a004e430d00511e8a4120
:102788005242144001003200180000f03ffa86421d
:0e27980003d02900fff7c2f80400200070bd36
:020000040000fa
:0227a60070477a
:020000040000fa
:1027a800094b5b8b5b070dd0074b80221a76793a71
:1027b8005a831b7e5b0705d5034b04211a8d1a7ead
:0c27c8000a42fbd17047c04600080042e6
:020000040000fa
:1027d4000300303bdbb2092b08d90300413b052b36
:1027e40006d900230200613a052a04d9180070476b
:0c27f4003738c3b2fae75738c3b2f7e732
:020000040000fa
:10280000002380290fdb812901dd83290bd10721da
:10281000136807338b431900083111601a685b682d
:0a28200002604360012318007047b6
:020000040000fa
:02282a007047f5
:020000040000fa
:10282c00074a2023d35c0120002b07d1054b588b82
:10283c00302318401038431e9841c0b27047c04630
:08284c00800000200010004292
:020000040000fa
:102854005b53544154455d2025730d0a000000006c
:102864005b53544154455d202573202d2d2d3e206e
:0828740025730d0a0000c046a7
:020000040000fa
:10287c0010b5084c2368196800f00ef801230028e5
:10288c0005db23680a20196800f0d0f9c30f584201
:08289c0010bdc046ac01002094
:020000040000fa
:1028a40070b50e00050000f013f9330004000200b7
:1028b40001212800fff75eff001b431e98414042a0
:0228c40070bde5
:020000040000fa
:0228c600704759
:020000040000fa
:1028c80010b5054c21606260a360029be360034b76
:1028d8001870012010bdc0461c0100208b0100208b
:020000040000fa
:1028e8004d4350343746454232385f5772697465f4
:1028f800565245465f414c4c2e2e2e0d0000c046c8
:020000040000fa
:1029080010b5054c21606260a360029be360034b35
:102918001870012010bdc046300100208c01002035
:020000040000fa
:1029280010b5054c21606260a360029be360034b15
:102938001870012010bdc046440100208d01002000
:020000040000fa
:1029480010b5054c21606260a360029be360034bf5
:102958001870012010bdc046580100208e010020cb
:020000040000fa
:102968000fb407b5054b04aa1b6802ca1868019280
:1029780000f07cf803b008bc04b01847ac01002094
:020000040000fa
:10298800002310b5934206d103201840421e9041ff
:0e2998009b08c01810bdc45ccc540133f2e79c
:020000040000fa
:1029a800054b41225a7000229a7002321a701a009e
:0c29b800d379002bfcd17047004800428e
:020000040000fa
:1029c400044b00221a609a60034a5a6004221a6077
:0c29d4007047c04610e000e07f380100b2
:020000040000fa
:1029e00070b50d001400012801d0200070bd210039
:0c29f0002800fff7bbfc0028f9d0f6e738
:020000040000fa
:1029fc008005800d034b18811a00d379002bfcd174
:082a0c007047c046004800427b
:020000040000fa
:102a14006761696e20202020202020202020202093
:082a24003a2025750d0a00009f
:020000040000fa
:102a2c0056524546202020202020202020202020e7
:082a3c003a2025750d0a000087
:020000040000fa
:102a4400830018188300c018800104d00023c046f6
:082a540001338342fbd17047fe
:020000040000fa
:102a5c00034b044a5a6000229a6007321a6070478e
:082a6c0010e000e07f380100da
:020000040000fa
:102a740013b50400019201aafdf7defc6368db06ce
:082a840001d50120404216bdfe
:020000040000fa
:102a8c00d0400b1cd1409c46203ad34018435242b4
:082a9c006346934018437047a4
:020000040000fa
:102aa4009140031c90409c46203a93401943524263
:082ab4006346d340194370474b
:020000040000fa
:102abc0010b5002903d1fff72ffd203002e0081cd0
:082acc00fff72afd10bdc04612
:020000040000fa
:102ad4000378002b06d0030001331a78002afbd1b7
:082ae400181a70470020fce7fe
:020000040000fa
:102aec0068076c094c836a9074a07ac0008068886f
:062afc0000846c820081e1
:020000040000fa
:102b0400034bdb79002b02d1014ba5221a727047cb
:042b1400001000406d
:020000040000fa
:102b180010b500f007f8024a13680a33136010bdb5
:042b28007401002014
:020000040000fa
:102b2c00034b1b68002b02d0013b014a136070471a
:042b3c0078010020fc
:020000040000fa
:102b4000912b000089290000492c0000492c00002d
:042b5000492c00000c
:020000040000fa
:102b540010b5002a05d00023cc5cc4540133934241
:042b6400fad110bdd5
:020000040000fa
:102b6800002a06d00300c9b28218197001339342b3
:042b7800fbd17047d6
:020000040000fa
:102b7c0010b500f057f8024b1860586010bdc046f5
:042b8c006c010020b8
:020000040000fa
:102b90008a18914201d10020704700230b70013147
:022ba000f7e755
:020000040000fa
:102ba400024a2123d05cc0b27047c0468000002096
:020000040000fa
:102bb400024b187e4007c00f7047c0460014004205
:020000040000fa
:102bc40010b5fff7d9fffff77cfefff77afe10bdc3
:020000040000fa
:0e2bd4000300413b192b01d820231843704702
:020000040000fa
:0e2be2000300613b192b01d85f231840704798
:020000040000fa
:0c2bf000014b80225a60704700400041f9
:020000040000fa
:0c2bfc00014b188d80b27047001400429d
:020000040000fa
:0c2c0800014b18687047c04674010020a2
:020000040000fa
:0a2c140010b50068fff7e2fe10bde6
:020000040000fa
:082c1e0010b5fff710ff10bd17
:020000040000fa
:082c2600286e696c29002500ed
:020000040000fa
:082c30000048704790010020ec
:020000040000fa
:082c380010b5fff71dfd10bdf2
:020000040000fa
:072c4000286e756c6c290081
:020000040000fa
:042c480000207047b1
:020000040000fa
:042c4c0000207047ad
:020000040000fa
:042c500000207047a9
:020000040000fa
:042c54007047c046bf
:020000040000fa
:0200000400807a
:0440000077c700d8a6
:020000040000fa
:0200000400807a
:044004005c00ffff5e
:00000001FF
